{
  "contractName": "TODO",
  "abi": [
    {
      "inputs": [],
      "stateMutability": "nonpayable",
      "type": "constructor"
    },
    {
      "inputs": [
        {
          "internalType": "uint256",
          "name": "",
          "type": "uint256"
        }
      ],
      "name": "tasks",
      "outputs": [
        {
          "internalType": "string",
          "name": "name",
          "type": "string"
        },
        {
          "internalType": "bool",
          "name": "completed",
          "type": "bool"
        }
      ],
      "stateMutability": "view",
      "type": "function",
      "constant": true
    },
    {
      "inputs": [
        {
          "internalType": "string",
          "name": "_newTask",
          "type": "string"
        }
      ],
      "name": "set",
      "outputs": [],
      "stateMutability": "nonpayable",
      "type": "function"
    },
    {
      "inputs": [
        {
          "internalType": "uint8",
          "name": "_index",
          "type": "uint8"
        }
      ],
      "name": "complete",
      "outputs": [],
      "stateMutability": "nonpayable",
      "type": "function"
    },
    {
      "inputs": [],
      "name": "getAll",
      "outputs": [
        {
          "components": [
            {
              "internalType": "string",
              "name": "name",
              "type": "string"
            },
            {
              "internalType": "bool",
              "name": "completed",
              "type": "bool"
            }
          ],
          "internalType": "struct TODO.Task[]",
          "name": "",
          "type": "tuple[]"
        }
      ],
      "stateMutability": "view",
      "type": "function",
      "constant": true
    }
  ],
  "bytecode": "0x608060405234801561001057600080fd5b50610969806100206000396000f3fe608060405234801561001057600080fd5b506004361061004c5760003560e01c80634ed3885e1461005157806353ed51431461006d5780638d9776721461008b578063a148dbc0146100bc575b600080fd5b61006b600480360381019061006691906104d7565b6100d8565b005b610075610163565b60405161008291906106c0565b60405180910390f35b6100a560048036038101906100a09190610518565b61026f565b6040516100b39291906106e2565b60405180910390f35b6100d660048036038101906100d19190610541565b610338565b005b600060405180604001604052808381526020016000151581525090506000819080600181540180825580915050600190039060005260206000209060020201600090919091909150600082015181600001908051906020019061013c9291906103a2565b5060208201518160010160006101000a81548160ff02191690831515021790555050505050565b60606000805480602002602001604051908101604052809291908181526020016000905b8282101561026657838290600052602060002090600202016040518060400160405290816000820180546101ba90610833565b80601f01602080910402602001604051908101604052809291908181526020018280546101e690610833565b80156102335780601f1061020857610100808354040283529160200191610233565b820191906000526020600020905b81548152906001019060200180831161021657829003601f168201915b505050505081526020016001820160009054906101000a900460ff16151515158152505081526020019060010190610187565b50505050905090565b6000818154811061027f57600080fd5b90600052602060002090600202016000915090508060000180546102a290610833565b80601f01602080910402602001604051908101604052809291908181526020018280546102ce90610833565b801561031b5780601f106102f05761010080835404028352916020019161031b565b820191906000526020600020905b8154815290600101906020018083116102fe57829003601f168201915b5050505050908060010160009054906101000a900460ff16905082565b600160008260ff1681548110610377577f4e487b7100000000000000000000000000000000000000000000000000000000600052603260045260246000fd5b906000526020600020906002020160010160006101000a81548160ff02191690831515021790555050565b8280546103ae90610833565b90600052602060002090601f0160209004810192826103d05760008555610417565b82601f106103e957805160ff1916838001178555610417565b82800160010185558215610417579182015b828111156104165782518255916020019190600101906103fb565b5b5090506104249190610428565b5090565b5b80821115610441576000816000905550600101610429565b5090565b600061045861045384610737565b610712565b90508281526020810184848401111561047057600080fd5b61047b8482856107f1565b509392505050565b600082601f83011261049457600080fd5b81356104a4848260208601610445565b91505092915050565b6000813590506104bc81610905565b92915050565b6000813590506104d18161091c565b92915050565b6000602082840312156104e957600080fd5b600082013567ffffffffffffffff81111561050357600080fd5b61050f84828501610483565b91505092915050565b60006020828403121561052a57600080fd5b6000610538848285016104ad565b91505092915050565b60006020828403121561055357600080fd5b6000610561848285016104c2565b91505092915050565b60006105768383610683565b905092915050565b600061058982610778565b610593818561079b565b9350836020820285016105a585610768565b8060005b858110156105e157848403895281516105c2858261056a565b94506105cd8361078e565b925060208a019950506001810190506105a9565b50829750879550505050505092915050565b6105fc816107ce565b82525050565b61060b816107ce565b82525050565b600061061c82610783565b61062681856107ac565b9350610636818560208601610800565b61063f816108f4565b840191505092915050565b600061065582610783565b61065f81856107bd565b935061066f818560208601610800565b610678816108f4565b840191505092915050565b600060408301600083015184820360008601526106a08282610611565b91505060208301516106b560208601826105f3565b508091505092915050565b600060208201905081810360008301526106da818461057e565b905092915050565b600060408201905081810360008301526106fc818561064a565b905061070b6020830184610602565b9392505050565b600061071c61072d565b90506107288282610865565b919050565b6000604051905090565b600067ffffffffffffffff821115610752576107516108c5565b5b61075b826108f4565b9050602081019050919050565b6000819050602082019050919050565b600081519050919050565b600081519050919050565b6000602082019050919050565b600082825260208201905092915050565b600082825260208201905092915050565b600082825260208201905092915050565b60008115159050919050565b6000819050919050565b600060ff82169050919050565b82818337600083830152505050565b60005b8381101561081e578082015181840152602081019050610803565b8381111561082d576000848401525b50505050565b6000600282049050600182168061084b57607f821691505b6020821081141561085f5761085e610896565b5b50919050565b61086e826108f4565b810181811067ffffffffffffffff8211171561088d5761088c6108c5565b5b80604052505050565b7f4e487b7100000000000000000000000000000000000000000000000000000000600052602260045260246000fd5b7f4e487b7100000000000000000000000000000000000000000000000000000000600052604160045260246000fd5b6000601f19601f8301169050919050565b61090e816107da565b811461091957600080fd5b50565b610925816107e4565b811461093057600080fd5b5056fea2646970667358221220a4cbe2d2b28b2a36bbf1159546fed7540d8f85f29e8612a039a3a6743ef979a764736f6c63430008040033",
  "immutableReferences": {},
  "source": "// SPDX-License-Identifier: MIT\npragma solidity ^0.8.0;\n\ncontract TODO {\n    struct Task {\n        string name;\n        bool completed;\n    }\n    \n    Task[] public tasks;\n    \n    constructor() {}\n    \n    function set(string memory _newTask) public {\n        Task memory newTask = Task({ name: _newTask, completed: false });\n        tasks.push(newTask);\n    }\n    \n    function complete(uint8 _index) public {\n        tasks[_index].completed = true;\n    }\n    \n    function getAll() public view returns (Task[] memory) {\n        return tasks;\n    }\n}\n",
  "sourcePath": "/Users/ernestognw/Documents/blockdemy/blockchain-developer-professional/2021/agosto/todo-list/contracts/TODO.sol",
  "compiler": {
    "name": "solc",
    "version": "0.8.4+commit.c7e474f2.Emscripten.clang"
  },
  "schemaVersion": "3.4.1",
  "updatedAt": "2021-08-15T18:36:42.305Z",
  "networkType": "ethereum",
  "devdoc": {
    "kind": "dev",
    "methods": {},
    "version": 1
  },
  "userdoc": {
    "kind": "user",
    "methods": {},
    "version": 1
  }
}